{
  "contractName": "SuperUser",
  "abi": [
    {
      "constant": true,
      "inputs": [],
      "name": "getSuperuser",
      "outputs": [
        {
          "name": "",
          "type": "address"
        }
      ],
      "payable": false,
      "stateMutability": "view",
      "type": "function"
    },
    {
      "constant": true,
      "inputs": [
        {
          "name": "IAAdd",
          "type": "address"
        }
      ],
      "name": "getIAContractAddress",
      "outputs": [
        {
          "name": "",
          "type": "address"
        }
      ],
      "payable": false,
      "stateMutability": "view",
      "type": "function"
    },
    {
      "constant": true,
      "inputs": [
        {
          "name": "field",
          "type": "bytes32"
        }
      ],
      "name": "getIAFromField",
      "outputs": [
        {
          "name": "",
          "type": "address"
        }
      ],
      "payable": false,
      "stateMutability": "view",
      "type": "function"
    },
    {
      "constant": true,
      "inputs": [],
      "name": "getSharingContract",
      "outputs": [
        {
          "name": "",
          "type": "address"
        }
      ],
      "payable": false,
      "stateMutability": "view",
      "type": "function"
    },
    {
      "constant": true,
      "inputs": [
        {
          "name": "i",
          "type": "uint256"
        }
      ],
      "name": "getIAAddressContract",
      "outputs": [
        {
          "name": "",
          "type": "address"
        },
        {
          "name": "",
          "type": "address"
        }
      ],
      "payable": false,
      "stateMutability": "view",
      "type": "function"
    },
    {
      "constant": true,
      "inputs": [],
      "name": "getNumberOfIA",
      "outputs": [
        {
          "name": "",
          "type": "uint256"
        }
      ],
      "payable": false,
      "stateMutability": "view",
      "type": "function"
    },
    {
      "constant": true,
      "inputs": [],
      "name": "getAccount",
      "outputs": [
        {
          "name": "",
          "type": "address"
        }
      ],
      "payable": false,
      "stateMutability": "view",
      "type": "function"
    },
    {
      "constant": false,
      "inputs": [
        {
          "name": "name",
          "type": "string"
        },
        {
          "name": "add",
          "type": "address"
        },
        {
          "name": "fields",
          "type": "bytes32[]"
        }
      ],
      "name": "addIssuingAuthority",
      "outputs": [],
      "payable": false,
      "stateMutability": "nonpayable",
      "type": "function"
    },
    {
      "inputs": [],
      "payable": false,
      "stateMutability": "nonpayable",
      "type": "constructor"
    }
  ],
  "bytecode": "0x6060604052341561000f57600080fd5b336000806101000a81548173ffffffffffffffffffffffffffffffffffffffff021916908373ffffffffffffffffffffffffffffffffffffffff1602179055506100576100ba565b604051809103906000f080151561006d57600080fd5b600360006101000a81548173ffffffffffffffffffffffffffffffffffffffff021916908373ffffffffffffffffffffffffffffffffffffffff16021790555060006002819055506100ca565b604051611a688061146183390190565b611388806100d96000396000f30060606040526004361061008e576000357c0100000000000000000000000000000000000000000000000000000000900463ffffffff16806347e6cd6514610093578063586e84a7146100e85780636bc2979714610161578063ba57e30d146101c8578063c212f03c1461021d578063d48b3b11146102b3578063db613e81146102dc578063e360c52114610331575b600080fd5b341561009e57600080fd5b6100a66103ed565b604051808273ffffffffffffffffffffffffffffffffffffffff1673ffffffffffffffffffffffffffffffffffffffff16815260200191505060405180910390f35b34156100f357600080fd5b61011f600480803573ffffffffffffffffffffffffffffffffffffffff16906020019091905050610416565b604051808273ffffffffffffffffffffffffffffffffffffffff1673ffffffffffffffffffffffffffffffffffffffff16815260200191505060405180910390f35b341561016c57600080fd5b61018660048080356000191690602001909190505061047f565b604051808273ffffffffffffffffffffffffffffffffffffffff1673ffffffffffffffffffffffffffffffffffffffff16815260200191505060405180910390f35b34156101d357600080fd5b6101db6104de565b604051808273ffffffffffffffffffffffffffffffffffffffff1673ffffffffffffffffffffffffffffffffffffffff16815260200191505060405180910390f35b341561022857600080fd5b61023e6004808035906020019091905050610508565b604051808373ffffffffffffffffffffffffffffffffffffffff1673ffffffffffffffffffffffffffffffffffffffff1681526020018273ffffffffffffffffffffffffffffffffffffffff1673ffffffffffffffffffffffffffffffffffffffff1681526020019250505060405180910390f35b34156102be57600080fd5b6102c66105e9565b6040518082815260200191505060405180910390f35b34156102e757600080fd5b6102ef6105f3565b604051808273ffffffffffffffffffffffffffffffffffffffff1673ffffffffffffffffffffffffffffffffffffffff16815260200191505060405180910390f35b341561033c57600080fd5b6103eb600480803590602001908201803590602001908080601f0160208091040260200160405190810160405280939291908181526020018383808284378201915050505050509190803573ffffffffffffffffffffffffffffffffffffffff16906020019091908035906020019082018035906020019080806020026020016040519081016040528093929190818152602001838360200280828437820191505050505050919050506105fb565b005b60008060009054906101000a900473ffffffffffffffffffffffffffffffffffffffff16905090565b6000600160008373ffffffffffffffffffffffffffffffffffffffff1673ffffffffffffffffffffffffffffffffffffffff16815260200190815260200160002060009054906101000a900473ffffffffffffffffffffffffffffffffffffffff169050919050565b60006004600560008460001916600019168152602001908152602001600020548154811015156104ab57fe5b906000526020600020900160009054906101000a900473ffffffffffffffffffffffffffffffffffffffff169050919050565b6000600360009054906101000a900473ffffffffffffffffffffffffffffffffffffffff16905090565b60008060048381548110151561051a57fe5b906000526020600020900160009054906101000a900473ffffffffffffffffffffffffffffffffffffffff166001600060048681548110151561055957fe5b906000526020600020900160009054906101000a900473ffffffffffffffffffffffffffffffffffffffff1673ffffffffffffffffffffffffffffffffffffffff1673ffffffffffffffffffffffffffffffffffffffff16815260200190815260200160002060009054906101000a900473ffffffffffffffffffffffffffffffffffffffff1691509150915091565b6000600254905090565b600033905090565b60008060009054906101000a900473ffffffffffffffffffffffffffffffffffffffff1673ffffffffffffffffffffffffffffffffffffffff163373ffffffffffffffffffffffffffffffffffffffff1614151561065857600080fd5b8282856106636108af565b808473ffffffffffffffffffffffffffffffffffffffff1673ffffffffffffffffffffffffffffffffffffffff1681526020018060200180602001838103835285818151815260200191508051906020019060200280838360005b838110156106d95780820151818401526020810190506106be565b50505050905001838103825284818151815260200191508051906020019080838360005b838110156107185780820151818401526020810190506106fd565b50505050905090810190601f1680156107455780820380516001836020036101000a031916815260200191505b5095505050505050604051809103906000f080151561076357600080fd5b600160008573ffffffffffffffffffffffffffffffffffffffff1673ffffffffffffffffffffffffffffffffffffffff16815260200190815260200160002060006101000a81548173ffffffffffffffffffffffffffffffffffffffff021916908373ffffffffffffffffffffffffffffffffffffffff160217905550600480548060010182816107f491906108bf565b9160005260206000209001600085909190916101000a81548173ffffffffffffffffffffffffffffffffffffffff021916908373ffffffffffffffffffffffffffffffffffffffff16021790555050600090505b81518110156108975760025460056000848481518110151561086657fe5b9060200190602002015160001916600019168152602001908152602001600020819055508080600101915050610848565b60026000815480929190600101919050555050505050565b604051610a4c8061091183390190565b8154818355818115116108e6578183600052602060002091820191016108e591906108eb565b5b505050565b61090d91905b808211156109095760008160009055506001016108f1565b5090565b9056006060604052341561000f57600080fd5b604051610a4c380380610a4c83398101604052808051906020019091908051820191906020018051820191905050600083600160006101000a81548173ffffffffffffffffffffffffffffffffffffffff021916908373ffffffffffffffffffffffffffffffffffffffff1602179055508251600481905550816002908051906020019061009e929190610109565b50600090505b825181101561010057600380548060010182816100c19190610189565b9160005260206000209001600085848151811015156100dc57fe5b906020019060200201519091909150906000191690555080806001019150506100a4565b505050506101ff565b828054600181600116156101000203166002900490600052602060002090601f016020900481019282601f1061014a57805160ff1916838001178555610178565b82800160010185558215610178579182015b8281111561017757825182559160200191906001019061015c565b5b50905061018591906101b5565b5090565b8154818355818115116101b0578183600052602060002091820191016101af91906101da565b5b505050565b6101d791905b808211156101d35760008160009055506001016101bb565b5090565b90565b6101fc91905b808211156101f85760008160009055506001016101e0565b5090565b90565b61083e8061020e6000396000f300606060405260043610610083576000357c0100000000000000000000000000000000000000000000000000000000900463ffffffff1680630f0cb228146100885780635e1a9049146100c7578063661b8f1a146101505780638918b0bd146101de578063893d20e8146102895780638ba7aa2d146102de578063a6f9dae114610307575b600080fd5b341561009357600080fd5b6100a96004808035906020019091905050610340565b60405180826000191660001916815260200191505060405180910390f35b34156100d257600080fd5b61014e600480803573ffffffffffffffffffffffffffffffffffffffff169060200190919080356000191690602001909190803590602001908201803590602001908080601f01602080910402602001604051908101604052809392919081815260200183838082843782019150505050505091905050610364565b005b341561015b57600080fd5b610163610434565b6040518080602001828103825283818151815260200191508051906020019080838360005b838110156101a3578082015181840152602081019050610188565b50505050905090810190601f1680156101d05780820380516001836020036101000a031916815260200191505b509250505060405180910390f35b34156101e957600080fd5b6101ff60048080359060200190919050506104dc565b60405180836000191660001916815260200180602001828103825283818151815260200191508051906020019080838360005b8381101561024d578082015181840152602081019050610232565b50505050905090810190601f16801561027a5780820380516001836020036101000a031916815260200191505b50935050505060405180910390f35b341561029457600080fd5b61029c610685565b604051808273ffffffffffffffffffffffffffffffffffffffff1673ffffffffffffffffffffffffffffffffffffffff16815260200191505060405180910390f35b34156102e957600080fd5b6102f16106af565b6040518082815260200191505060405180910390f35b341561031257600080fd5b61033e600480803573ffffffffffffffffffffffffffffffffffffffff169060200190919050506106b9565b005b600060038281548110151561035157fe5b9060005260206000209001549050919050565b600160009054906101000a900473ffffffffffffffffffffffffffffffffffffffff1673ffffffffffffffffffffffffffffffffffffffff163373ffffffffffffffffffffffffffffffffffffffff161415156103c057600080fd5b806000808573ffffffffffffffffffffffffffffffffffffffff1673ffffffffffffffffffffffffffffffffffffffff16815260200190815260200160002060000160008460001916600019168152602001908152602001600020908051906020019061042e929190610759565b50505050565b61043c6107d9565b60028054600181600116156101000203166002900480601f0160208091040260200160405190810160405280929190818152602001828054600181600116156101000203166002900480156104d25780601f106104a7576101008083540402835291602001916104d2565b820191906000526020600020905b8154815290600101906020018083116104b557829003601f168201915b5050505050905090565b60006104e66107d9565b600454831115610550577f4e554c4c000000000000000000000000000000000000000000000000000000006040805190810160405280600481526020017f4e554c4c0000000000000000000000000000000000000000000000000000000081525091509150610680565b60038381548110151561055f57fe5b9060005260206000209001546000803373ffffffffffffffffffffffffffffffffffffffff1673ffffffffffffffffffffffffffffffffffffffff16815260200190815260200160002060000160006003868154811015156105bd57fe5b90600052602060002090015460001916600019168152602001908152602001600020808054600181600116156101000203166002900480601f0160208091040260200160405190810160405280929190818152602001828054600181600116156101000203166002900480156106745780601f1061064957610100808354040283529160200191610674565b820191906000526020600020905b81548152906001019060200180831161065757829003601f168201915b50505050509050915091505b915091565b6000600160009054906101000a900473ffffffffffffffffffffffffffffffffffffffff16905090565b6000600454905090565b600160009054906101000a900473ffffffffffffffffffffffffffffffffffffffff1673ffffffffffffffffffffffffffffffffffffffff163373ffffffffffffffffffffffffffffffffffffffff1614151561071557600080fd5b80600160006101000a81548173ffffffffffffffffffffffffffffffffffffffff021916908373ffffffffffffffffffffffffffffffffffffffff16021790555050565b828054600181600116156101000203166002900490600052602060002090601f016020900481019282601f1061079a57805160ff19168380011785556107c8565b828001600101855582156107c8579182015b828111156107c75782518255916020019190600101906107ac565b5b5090506107d591906107ed565b5090565b602060405190810160405280600081525090565b61080f91905b8082111561080b5760008160009055506001016107f3565b5090565b905600a165627a7a723058200dfb44dbc8cfcf1fffb298189937ea70d301f57c93d5bc8f65d58c7462a9f2be0029a165627a7a723058203752b63eadf14e70bc385ac2ff01137dfef9a91a4a5ca05979c2ee5905cddf5d00296060604052341561000f57600080fd5b611a4a8061001e6000396000f3006060604052600436106100af576000357c0100000000000000000000000000000000000000000000000000000000900463ffffffff16806338266b22146100b45780634738a08d146101d257806354723aa71461029a578063720a5ee1146102c3578063933d6bf1146103205780639d17a3c71461043e578063a69df4b51461049d578063c1c35082146104b2578063cbe0554114610564578063cd8ce97514610623578063f83d08ba146106d5575b600080fd5b34156100bf57600080fd5b6100eb600480803573ffffffffffffffffffffffffffffffffffffffff169060200190919050506106ea565b604051808060200180602001838103835285818151815260200191508051906020019080838360005b8381101561012f578082015181840152602081019050610114565b50505050905090810190601f16801561015c5780820380516001836020036101000a031916815260200191505b50838103825284818151815260200191508051906020019080838360005b8381101561019557808201518184015260208101905061017a565b50505050905090810190601f1680156101c25780820380516001836020036101000a031916815260200191505b5094505050505060405180910390f35b34156101dd57600080fd5b610298600480803590602001908201803590602001908080601f0160208091040260200160405190810160405280939291908181526020018383808284378201915050505050509190803590602001908201803590602001908080601f0160208091040260200160405190810160405280939291908181526020018383808284378201915050505050509190803573ffffffffffffffffffffffffffffffffffffffff16906020019091908035906020019091905050610a1f565b005b34156102a557600080fd5b6102ad610e15565b6040518082815260200191505060405180910390f35b34156102ce57600080fd5b61031e600480803590602001908201803590602001908080601f01602080910402602001604051908101604052809392919081815260200183838082843782019150505050505091905050610e5f565b005b341561032b57600080fd5b610357600480803573ffffffffffffffffffffffffffffffffffffffff16906020019091905050610eb6565b604051808060200180602001838103835285818151815260200191508051906020019080838360005b8381101561039b578082015181840152602081019050610380565b50505050905090810190601f1680156103c85780820380516001836020036101000a031916815260200191505b50838103825284818151815260200191508051906020019080838360005b838110156104015780820151818401526020810190506103e6565b50505050905090810190601f16801561042e5780820380516001836020036101000a031916815260200191505b5094505050505060405180910390f35b341561044957600080fd5b61045f6004808035906020019091905050611137565b6040518082600560200280838360005b8381101561048a57808201518184015260208101905061046f565b5050505090500191505060405180910390f35b34156104a857600080fd5b6104b06112dc565b005b34156104bd57600080fd5b6104e9600480803573ffffffffffffffffffffffffffffffffffffffff16906020019091905050611395565b6040518080602001828103825283818151815260200191508051906020019080838360005b8381101561052957808201518184015260208101905061050e565b50505050905090810190601f1680156105565780820380516001836020036101000a031916815260200191505b509250505060405180910390f35b341561056f57600080fd5b610621600480803590602001908201803590602001908080601f0160208091040260200160405190810160405280939291908181526020018383808284378201915050505050509190803573ffffffffffffffffffffffffffffffffffffffff1690602001909190803590602001908201803590602001908080601f0160208091040260200160405190810160405280939291908181526020018383808284378201915050505050509190505061147c565b005b341561062e57600080fd5b61065a600480803573ffffffffffffffffffffffffffffffffffffffff16906020019091905050611690565b6040518080602001828103825283818151815260200191508051906020019080838360005b8381101561069a57808201518184015260208101905061067f565b50505050905090810190601f1680156106c75780820380516001836020036101000a031916815260200191505b509250505060405180910390f35b34156106e057600080fd5b6106e8611842565b005b6106f26118fb565b6106fa6118fb565b60001515600260008573ffffffffffffffffffffffffffffffffffffffff1673ffffffffffffffffffffffffffffffffffffffff16815260200190815260200160002060009054906101000a900460ff1615151480156107d757506000808473ffffffffffffffffffffffffffffffffffffffff1673ffffffffffffffffffffffffffffffffffffffff16815260200190815260200160002060003373ffffffffffffffffffffffffffffffffffffffff1673ffffffffffffffffffffffffffffffffffffffff1681526020019081526020016000206002015442105b15156107e257600080fd5b6000808473ffffffffffffffffffffffffffffffffffffffff1673ffffffffffffffffffffffffffffffffffffffff16815260200190815260200160002060003373ffffffffffffffffffffffffffffffffffffffff1673ffffffffffffffffffffffffffffffffffffffff1681526020019081526020016000206000016000808573ffffffffffffffffffffffffffffffffffffffff1673ffffffffffffffffffffffffffffffffffffffff16815260200190815260200160002060003373ffffffffffffffffffffffffffffffffffffffff1673ffffffffffffffffffffffffffffffffffffffff168152602001908152602001600020600101818054600181600116156101000203166002900480601f0160208091040260200160405190810160405280929190818152602001828054600181600116156101000203166002900480156109735780601f1061094857610100808354040283529160200191610973565b820191906000526020600020905b81548152906001019060200180831161095657829003601f168201915b50505050509150808054600181600116156101000203166002900480601f016020809104026020016040519081016040528092919081815260200182805460018160011615610100020316600290048015610a0f5780601f106109e457610100808354040283529160200191610a0f565b820191906000526020600020905b8154815290600101906020018083116109f257829003601f168201915b5050505050905091509150915091565b60001515600260003373ffffffffffffffffffffffffffffffffffffffff1673ffffffffffffffffffffffffffffffffffffffff16815260200190815260200160002060009054906101000a900460ff161515141515610a7e57600080fd5b600073ffffffffffffffffffffffffffffffffffffffff168273ffffffffffffffffffffffffffffffffffffffff161415610bb95783600160003373ffffffffffffffffffffffffffffffffffffffff1673ffffffffffffffffffffffffffffffffffffffff1681526020019081526020016000206000019080519060200190610b0992919061190f565b5082600160003373ffffffffffffffffffffffffffffffffffffffff1673ffffffffffffffffffffffffffffffffffffffff1681526020019081526020016000206001019080519060200190610b6092919061190f565b506000811115610bb457804201600160003373ffffffffffffffffffffffffffffffffffffffff1673ffffffffffffffffffffffffffffffffffffffff168152602001908152602001600020600201819055505b610e0f565b836000803373ffffffffffffffffffffffffffffffffffffffff1673ffffffffffffffffffffffffffffffffffffffff16815260200190815260200160002060008473ffffffffffffffffffffffffffffffffffffffff1673ffffffffffffffffffffffffffffffffffffffff1681526020019081526020016000206000019080519060200190610c4b92919061190f565b50826000803373ffffffffffffffffffffffffffffffffffffffff1673ffffffffffffffffffffffffffffffffffffffff16815260200190815260200160002060008473ffffffffffffffffffffffffffffffffffffffff1673ffffffffffffffffffffffffffffffffffffffff1681526020019081526020016000206001019080519060200190610cde92919061190f565b506000811115610d6e578042016000803373ffffffffffffffffffffffffffffffffffffffff1673ffffffffffffffffffffffffffffffffffffffff16815260200190815260200160002060008473ffffffffffffffffffffffffffffffffffffffff1673ffffffffffffffffffffffffffffffffffffffff168152602001908152602001600020600201819055505b600360003373ffffffffffffffffffffffffffffffffffffffff1673ffffffffffffffffffffffffffffffffffffffff1681526020019081526020016000208054806001018281610dbf919061198f565b9160005260206000209001600084909190916101000a81548173ffffffffffffffffffffffffffffffffffffffff021916908373ffffffffffffffffffffffffffffffffffffffff160217905550505b50505050565b6000600360003373ffffffffffffffffffffffffffffffffffffffff1673ffffffffffffffffffffffffffffffffffffffff16815260200190815260200160002080549050905090565b80600460003373ffffffffffffffffffffffffffffffffffffffff1673ffffffffffffffffffffffffffffffffffffffff1681526020019081526020016000209080519060200190610eb292919061190f565b5050565b610ebe6118fb565b610ec66118fb565b60001515600260008573ffffffffffffffffffffffffffffffffffffffff1673ffffffffffffffffffffffffffffffffffffffff16815260200190815260200160002060009054906101000a900460ff161515148015610f675750600160008473ffffffffffffffffffffffffffffffffffffffff1673ffffffffffffffffffffffffffffffffffffffff1681526020019081526020016000206002015442105b1515610f7257600080fd5b600160008473ffffffffffffffffffffffffffffffffffffffff1673ffffffffffffffffffffffffffffffffffffffff168152602001908152602001600020600001600160008573ffffffffffffffffffffffffffffffffffffffff1673ffffffffffffffffffffffffffffffffffffffff168152602001908152602001600020600101818054600181600116156101000203166002900480601f01602080910402602001604051908101604052809291908181526020018280546001816001161561010002031660029004801561108b5780601f106110605761010080835404028352916020019161108b565b820191906000526020600020905b81548152906001019060200180831161106e57829003601f168201915b50505050509150808054600181600116156101000203166002900480601f0160208091040260200160405190810160405280929190818152602001828054600181600116156101000203166002900480156111275780601f106110fc57610100808354040283529160200191611127565b820191906000526020600020905b81548152906001019060200180831161110a57829003601f168201915b5050505050905091509150915091565b61113f6119bb565b6000806000600360003373ffffffffffffffffffffffffffffffffffffffff1673ffffffffffffffffffffffffffffffffffffffff168152602001908152602001600020805490509250600583111561119757600592505b600091505b8282101561127057600360003373ffffffffffffffffffffffffffffffffffffffff1673ffffffffffffffffffffffffffffffffffffffff1681526020019081526020016000208583018154811015156111f257fe5b906000526020600020900160009054906101000a900473ffffffffffffffffffffffffffffffffffffffff16848360058110151561122c57fe5b602002019073ffffffffffffffffffffffffffffffffffffffff16908173ffffffffffffffffffffffffffffffffffffffff1681525050818060010192505061119c565b8290505b60058110156112d1576000848260058110151561128d57fe5b602002019073ffffffffffffffffffffffffffffffffffffffff16908173ffffffffffffffffffffffffffffffffffffffff16815250508080600101915050611274565b839350505050919050565b60011515600260003373ffffffffffffffffffffffffffffffffffffffff1673ffffffffffffffffffffffffffffffffffffffff16815260200190815260200160002060009054906101000a900460ff16151514151561133b57600080fd5b6000600260003373ffffffffffffffffffffffffffffffffffffffff1673ffffffffffffffffffffffffffffffffffffffff16815260200190815260200160002060006101000a81548160ff021916908315150217905550565b61139d6118fb565b600460008373ffffffffffffffffffffffffffffffffffffffff1673ffffffffffffffffffffffffffffffffffffffff1681526020019081526020016000208054600181600116156101000203166002900480601f0160208091040260200160405190810160405280929190818152602001828054600181600116156101000203166002900480156114705780601f1061144557610100808354040283529160200191611470565b820191906000526020600020905b81548152906001019060200180831161145357829003601f168201915b50505050509050919050565b600073ffffffffffffffffffffffffffffffffffffffff168273ffffffffffffffffffffffffffffffffffffffff1614156115645782600160003373ffffffffffffffffffffffffffffffffffffffff1673ffffffffffffffffffffffffffffffffffffffff168152602001908152602001600020600001908051906020019061150792919061190f565b5080600160003373ffffffffffffffffffffffffffffffffffffffff1673ffffffffffffffffffffffffffffffffffffffff168152602001908152602001600020600101908051906020019061155e92919061190f565b5061168b565b826000803373ffffffffffffffffffffffffffffffffffffffff1673ffffffffffffffffffffffffffffffffffffffff16815260200190815260200160002060008473ffffffffffffffffffffffffffffffffffffffff1673ffffffffffffffffffffffffffffffffffffffff16815260200190815260200160002060000190805190602001906115f692919061190f565b50806000803373ffffffffffffffffffffffffffffffffffffffff1673ffffffffffffffffffffffffffffffffffffffff16815260200190815260200160002060008473ffffffffffffffffffffffffffffffffffffffff1673ffffffffffffffffffffffffffffffffffffffff168152602001908152602001600020600101908051906020019061168992919061190f565b505b505050565b6116986118fb565b6000803373ffffffffffffffffffffffffffffffffffffffff1673ffffffffffffffffffffffffffffffffffffffff16815260200190815260200160002060008373ffffffffffffffffffffffffffffffffffffffff1673ffffffffffffffffffffffffffffffffffffffff168152602001908152602001600020600201544210151561172457600080fd5b6000803373ffffffffffffffffffffffffffffffffffffffff1673ffffffffffffffffffffffffffffffffffffffff16815260200190815260200160002060008373ffffffffffffffffffffffffffffffffffffffff1673ffffffffffffffffffffffffffffffffffffffff1681526020019081526020016000206001018054600181600116156101000203166002900480601f0160208091040260200160405190810160405280929190818152602001828054600181600116156101000203166002900480156118365780601f1061180b57610100808354040283529160200191611836565b820191906000526020600020905b81548152906001019060200180831161181957829003601f168201915b50505050509050919050565b60001515600260003373ffffffffffffffffffffffffffffffffffffffff1673ffffffffffffffffffffffffffffffffffffffff16815260200190815260200160002060009054906101000a900460ff1615151415156118a157600080fd5b6001600260003373ffffffffffffffffffffffffffffffffffffffff1673ffffffffffffffffffffffffffffffffffffffff16815260200190815260200160002060006101000a81548160ff021916908315150217905550565b602060405190810160405280600081525090565b828054600181600116156101000203166002900490600052602060002090601f016020900481019282601f1061195057805160ff191683800117855561197e565b8280016001018555821561197e579182015b8281111561197d578251825591602001919060010190611962565b5b50905061198b91906119f9565b5090565b8154818355818115116119b6578183600052602060002091820191016119b591906119f9565b5b505050565b60a0604051908101604052806005905b600073ffffffffffffffffffffffffffffffffffffffff168152602001906001900390816119cb5790505090565b611a1b91905b80821115611a175760008160009055506001016119ff565b5090565b905600a165627a7a7230582096f49634b68621db307614fea455807e031354fb9c3ad2fa0924e4fb0b1d71630029",
  "source": "pragma solidity ^0.4.11;\n\ncontract IssuingAuthority {\n\n    struct dataMapper {\n        mapping(bytes32 => string) data;\n    }\n\n    mapping(address => dataMapper) private users;\n    address _owner;\n    string name;\n\n    bytes32[] private fields;\n    uint private fieldsCount;\n   \n\n    function IssuingAuthority(address add, bytes32[] _fields, string _name) public {\n        _owner = add;\n        fieldsCount = _fields.length;\n        name = _name;\n\n        for(uint i=0; i<_fields.length; i++) {\n            fields.push(_fields[i]);\n        }\n    }\n    \n     modifier issuingAuthorityAccess() {\n        require(msg.sender == _owner);\n        _;\n    }\n\n    function getFieldNameValuePair(uint i) view public returns(bytes32, string) {\n        if(i > fieldsCount)\n            return (\"NULL\", \"NULL\");\n        return (fields[i], users[msg.sender].data[fields[i]]);\n    }\n\n    function updateData(address uid, bytes32 fieldName, string fieldValue) public issuingAuthorityAccess {\n        users[uid].data[fieldName] = fieldValue;\n    }\n\n    function changeOwner(address add) public issuingAuthorityAccess {\n        // if owner forgot his keys.\n        _owner = add;\n    }\n\n    function getNumberOfFields() view public returns(uint) {\n        return fieldsCount;\n    }\n\n    function getFields(uint i) view public returns(bytes32) {\n        return fields[i];\n    }\n\n    function getOwner() view public returns(address) {\n        return _owner;\n    }\n\n    function getIAName() view public returns(string) {\n        return name;\n    }\n}\n\ncontract Sharing {\n\n    struct DataPoint {\n        string data;\n        string approvedData;\n        uint endTime;\n        bool valid;\n    } \n    \n    event SendForApproval(address user, address citizen, string reqdata);\n    \n    \n\n    mapping(address => mapping(address => DataPoint)) sharingDataPoints;\n    mapping(address => DataPoint) sharingDataPointsOpen;\n    mapping(address => bool) lockDetails;\n    mapping(address => address[]) approvedCompanies;\n    mapping(address => string) serviceProviderName;\n\n\n\n    function Sharing() public {\n\n    }\n\n    /*function request(address userId, string data) public {\n        \n    }*/\n\n    function approve(string _data, string _approvedData, address approvedTo, uint eTime) public {\n        require(lockDetails[msg.sender] == false);\n\n        if(approvedTo == address(0)) {\n            sharingDataPointsOpen[msg.sender].data = _data;\n            sharingDataPointsOpen[msg.sender].approvedData = _approvedData;\n            if(eTime > 0)\n                sharingDataPointsOpen[msg.sender].endTime = now + eTime;\n        }\n        else {\n            sharingDataPoints[msg.sender][approvedTo].data = _data;\n            sharingDataPoints[msg.sender][approvedTo].approvedData = _approvedData;\n            if(eTime > 0)\n                sharingDataPoints[msg.sender][approvedTo].endTime = now + eTime;\n            \n            approvedCompanies[msg.sender].push(approvedTo);\n        }\n        \n        //Event possible.\n    }\n\n    function modifyApproval(string newEncryptedData, address approvedTo, string newApprovedData) public {\n        if(approvedTo == address(0)) {\n            sharingDataPointsOpen[msg.sender].data = newEncryptedData;\n            sharingDataPointsOpen[msg.sender].approvedData = newApprovedData;\n        }\n        else {\n            sharingDataPoints[msg.sender][approvedTo].data = newEncryptedData;\n            sharingDataPoints[msg.sender][approvedTo].approvedData = newApprovedData;\n        }\n        \n    }\n\n    function getData(address add) view public returns(string, string) {\n        require(lockDetails[add] == false && now < sharingDataPoints[add][msg.sender].endTime);\n        \n        // Sends encrypted data with key of service provider.\n        return(sharingDataPoints[add][msg.sender].data, sharingDataPoints[add][msg.sender].approvedData);\n    }\n\n    function getOpenData(address add) view public returns(string, string) {\n        require(lockDetails[add] == false && now < sharingDataPointsOpen[add].endTime);\n\n        // Sends encrypted data with open key\n        return(sharingDataPointsOpen[add].data, sharingDataPointsOpen[add].approvedData);\n    }\n    \n    // Service provider to customer\n    /* function requestApproval(address user, string _reqData) public returns(bool) {\n        require(lockDetails[user] == false);\n        if(sharingDataPoints[msg.sender][user].valid == false) {\n            SendForApproval(msg.sender, user, _reqData);\n            return false;\n        }\n        return true;\n    } */\n\n    function lock() public {\n        require(lockDetails[msg.sender] == false);\n        lockDetails[msg.sender] = true;\n    }\n\n    function unlock() public {\n        require(lockDetails[msg.sender] == true);\n        lockDetails[msg.sender] = false;\n    }\n\n    function getApprovedNumberOfCompanies() view public returns(uint) {\n        return approvedCompanies[msg.sender].length;\n    }\n\n    function getApprovedCompanies(uint p) view public returns(address[5] result) {\n        uint len = approvedCompanies[msg.sender].length;\n        if(len > 5)\n            len = 5;\n        for(uint i=0;i<len;i++) {\n            result[i] = approvedCompanies[msg.sender][i + p];\n        }\n        for(uint j = len; j<5; j++) {\n            result[j] = address(0);\n        }\n\n        return result;\n    }\n\n    function getApprovedData(address company_id) view public returns(string) {\n        require(now < sharingDataPoints[msg.sender][company_id].endTime);\n        return sharingDataPoints[msg.sender][company_id].approvedData;\n    }\n\n    function registerAsServiceProvider(string name) public {\n        serviceProviderName[msg.sender] = name;\n    }\n\n    function getServiceProviderName(address add) view public returns(string) {\n        return serviceProviderName[add];\n    }\n}\n\ncontract SuperUser {\n    address private superuser;\n    mapping(address => address) private IAList;\n    uint IASize;\n    address private sharingContract;\n    address[] private IAVector;\n    mapping(bytes32 => uint) private fieldToIAAddress;\n\n    modifier superuserAccess() {\n        require(msg.sender == superuser);\n        _;\n    }\n\n    function SuperUser() public {\n        superuser = msg.sender;\n        sharingContract = new Sharing();\n        IASize = 0;\n    }\n\n    function addIssuingAuthority(string name, address add, bytes32[] fields) public superuserAccess {\n        IAList[add] = new IssuingAuthority(add, fields, name);\n        IAVector.push(add);\n        \n        for(uint i=0;i<fields.length;i++) {\n            fieldToIAAddress[fields[i]] = IASize;\n        }\n        IASize++;\n    }\n\n    function getIAContractAddress(address IAAdd)view public returns(address) {\n        return IAList[IAAdd];\n    }\n\n    function getSharingContract() view public returns(address) {\n        return sharingContract;\n    }\n\n    function getNumberOfIA() view public returns(uint) {\n        return IASize;\n    }\n\n    function getIAAddressContract(uint i) view public returns(address, address) {\n        return (IAVector[i], IAList[IAVector[i]]);\n    }\n\n    function getSuperuser() view public returns(address) {\n        return superuser;\n    }\n\n    function getAccount() view public returns(address) {\n        return msg.sender;\n    }\n\n    function getIAFromField(bytes32 field) view public returns(address) {\n        return IAVector[fieldToIAAddress[field]];\n    }\n\n    /*function destroyIAContracts() public superuserAccess {\n\n    }*/\n\n}\n",
  "sourcePath": "/Users/abhishek/Documents/Projects/Ethereum/Merkle/public/truffle-contract/contracts/IdentityManagement.sol",
  "compiler": {
    "name": "solc",
    "version": "0.4.18+commit.9cf6e910.Emscripten.clang"
  },
  "schemaVersion": "1.0.1",
  "updatedAt": "2018-03-28T09:49:00.772Z"
}